{
  "deployments": [
    {
      "transactions": [
        {
          "hash": "0xffbea1b08feff320ba16218d9408cce0b26d9f3cf47bde01f43a973f15a6b506",
          "transactionType": "CREATE",
          "contractName": "DSROracleForwarderGnosis",
          "contractAddress": "0x35956B98D441EDC00Cc04c776DBff6BA9884Cf27",
          "function": null,
          "arguments": [
            "0x197E90f9FAD81970bA7976f33CbD77088E5D7cf7",
            "0x2634a7554343350f3fF974eB76bCc378C6e05e19"
          ],
          "transaction": {
            "type": "0x02",
            "from": "0xd1236a6a111879d9862f8374ba15344b6b233fbd",
            "gas": "0xa1ead",
            "value": "0x0",
            "data": "0x60c060405234801561001057600080fd5b5060405161091e38038061091e83398101604081905261002f91610062565b6001600160a01b039182166080521660a052610095565b80516001600160a01b038116811461005d57600080fd5b919050565b6000806040838503121561007557600080fd5b61007e83610046565b915061008c60208401610046565b90509250929050565b60805160a0516108486100d6600039600081816101e7015261031601526000818161013a01528181610357015281816103f9015261049e01526108486000f3fe608060405234801561001057600080fd5b50600436106100885760003560e01c80639b5f694a1161005b5780639b5f694a146101e25780639c75dd3514610209578063cdcc38771461021e578063ead05e681461023457600080fd5b80631e1fd2911461008d5780634ba2363a146101355780636d7bfdbf1461018157806395550b55146101b4575b600080fd5b6000546100ef906bffffffffffffffffffffffff8116906c0100000000000000000000000081046effffffffffffffffffffffffffffff16907b01000000000000000000000000000000000000000000000000000000900464ffffffffff1683565b604080516bffffffffffffffffffffffff90941684526effffffffffffffffffffffffffffff909216602084015264ffffffffff16908201526060015b60405180910390f35b61015c7f000000000000000000000000000000000000000000000000000000000000000081565b60405173ffffffffffffffffffffffffffffffffffffffff909116815260200161012c565b6000546c0100000000000000000000000090046effffffffffffffffffffffffffffff165b60405190815260200161012c565b6000547b01000000000000000000000000000000000000000000000000000000900464ffffffffff166101a6565b61015c7f000000000000000000000000000000000000000000000000000000000000000081565b61021c61021736600461074f565b610311565b005b6000546bffffffffffffffffffffffff166101a6565b6102c9604080516060810182526000808252602082018190529181019190915250604080516060810182526000546bffffffffffffffffffffffff811682526c0100000000000000000000000081046effffffffffffffffffffffffffffff1660208301527b01000000000000000000000000000000000000000000000000000000900464ffffffffff169181019190915290565b6040805182516bffffffffffffffffffffffff1681526020808401516effffffffffffffffffffffffffffff16908201529181015164ffffffffff169082015260600161012c565b6103437f000000000000000000000000000000000000000000000000000000000000000061033d610346565b8361068a565b50565b6060600060405180606001604052807f000000000000000000000000000000000000000000000000000000000000000073ffffffffffffffffffffffffffffffffffffffff1663487bf0826040518163ffffffff1660e01b8152600401602060405180830381865afa1580156103c0573d6000803e3d6000fd5b505050506040513d601f19601f820116820180604052508101906103e49190610768565b6bffffffffffffffffffffffff1681526020017f000000000000000000000000000000000000000000000000000000000000000073ffffffffffffffffffffffffffffffffffffffff1663c92aecc46040518163ffffffff1660e01b8152600401602060405180830381865afa158015610462573d6000803e3d6000fd5b505050506040513d601f19601f820116820180604052508101906104869190610768565b6effffffffffffffffffffffffffffff1681526020017f000000000000000000000000000000000000000000000000000000000000000073ffffffffffffffffffffffffffffffffffffffff166320aba08b6040518163ffffffff1660e01b8152600401602060405180830381865afa158015610507573d6000803e3d6000fd5b505050506040513d601f19601f8201168201806040525081019061052b9190610768565b64ffffffffff908116909152815160008054602085018051604080880180516bffffffffffffffffffffffff9097167fffffffffff00000000000000000000000000000000000000000000000000000090951685176c010000000000000000000000006effffffffffffffffffffffffffffff94851602177affffffffffffffffffffffffffffffffffffffffffffffffffffff167b0100000000000000000000000000000000000000000000000000000097891697909702969096179094559251602481019290925251909116604482015290519091166064820152909150608401604080517fffffffffffffffffffffffffffffffffffffffffffffffffffffffffffffffe08184030181529190526020810180517bffffffffffffffffffffffffffffffffffffffffffffffffffffffff167f58aff2ef0000000000000000000000000000000000000000000000000000000017905292915050565b6106aa734c36d2919e407f0cc2ee3c993ccf8ac26d9ce64e8484846106af565b505050565b6040517fdc8601b300000000000000000000000000000000000000000000000000000000815273ffffffffffffffffffffffffffffffffffffffff85169063dc8601b39061070590869086908690600401610781565b6020604051808303816000875af1158015610724573d6000803e3d6000fd5b505050506040513d601f19601f820116820180604052508101906107489190610768565b5050505050565b60006020828403121561076157600080fd5b5035919050565b60006020828403121561077a57600080fd5b5051919050565b73ffffffffffffffffffffffffffffffffffffffff8416815260006020606081840152845180606085015260005b818110156107cb578681018301518582016080015282016107af565b5060006080828601015260807fffffffffffffffffffffffffffffffffffffffffffffffffffffffffffffffe0601f8301168501019250505082604083015294935050505056fea26469706673582212209fc833a9a8695ac5a298fa5c79a67db67dbd02ff4c02e626449b160ea2857b8c64736f6c63430008140033000000000000000000000000197e90f9fad81970ba7976f33cbd77088e5d7cf70000000000000000000000002634a7554343350f3ff974eb76bcc378c6e05e19",
            "nonce": "0x21f",
            "accessList": []
          },
          "additionalContracts": [],
          "isFixedGasLimit": false
        }
      ],
      "receipts": [
        {
          "transactionHash": "0xffbea1b08feff320ba16218d9408cce0b26d9f3cf47bde01f43a973f15a6b506",
          "transactionIndex": "0x46",
          "blockHash": "0x1c06274175e42f55f5333aa1f3af6693cbc6abceaa8cc1402f2041758d5c20fd",
          "blockNumber": "0x12b701d",
          "from": "0xd1236a6A111879d9862f8374BA15344b6B233Fbd",
          "to": null,
          "cumulativeGasUsed": "0x9056ad",
          "gasUsed": "0x7c96a",
          "contractAddress": "0x35956B98D441EDC00Cc04c776DBff6BA9884Cf27",
          "logs": [],
          "status": "0x1",
          "logsBloom": "0x00000000000000000000000000000000000000000000000000000000000000000000000000000000000000000000000000000000000000000000000000000000000000000000000000000000000000000000000000000000000000000000000000000000000000000000000000000000000000000000000000000000000000000000000000000000000000000000000000000000000000000000000000000000000000000000000000000000000000000000000000000000000000000000000000000000000000000000000000000000000000000000000000000000000000000000000000000000000000000000000000000000000000000000000000000000",
          "type": "0x2",
          "effectiveGasPrice": "0x39a98c907"
        }
      ],
      "libraries": [],
      "pending": [],
      "returns": {},
      "timestamp": 1712736813,
      "chain": 1,
      "commit": "353515e"
    },
    {
      "transactions": [
        {
          "hash": "0xcdc63b1d429a61381d9795bf885e20ca09a16767e71c83e77508c2b494f4f5a9",
          "transactionType": "CREATE",
          "contractName": "DSRAuthOracle",
          "contractAddress": "0xd711Ed1E89d582e1Cace7a05c280Ea022218Fe15",
          "function": null,
          "arguments": null,
          "transaction": {
            "type": "0x02",
            "from": "0xd1236a6a111879d9862f8374ba15344b6b233fbd",
            "gas": "0x1c02c7",
            "value": "0x0",
            "data": "0x608060405234801561001057600080fd5b5061001c60003361005d565b506100487fb6f6b279a7a4e2aa16012cbd36fcdc1fbdb91b92fd6dab57885c9de496473a8d6000610109565b6b033b2e3c9fd0803ce8000000600255610154565b6000828152602081815260408083206001600160a01b038516845290915281205460ff166100ff576000838152602081815260408083206001600160a01b03861684529091529020805460ff191660011790556100b73390565b6001600160a01b0316826001600160a01b0316847f2f8788117e7eff1d82e926ec794901d17c78024a50270940304540a733656f0d60405160405180910390a4506001610103565b5060005b92915050565b600082815260208190526040808220600101805490849055905190918391839186917fbd79b86ffe0ab8e8776151514217cd7cacd52c909f66475c3af44e129f0b00ff9190a4505050565b6117c380620001646000396000f3fe608060405234801561001057600080fd5b50600436106101825760003560e01c806391d14854116100d8578063b4c7ec781161008c578063ccebbbcf11610066578063ccebbbcf1461039e578063d547741f1461047b578063f36089ec1461048e57600080fd5b8063b4c7ec781461031f578063be13c1e31461034d578063c89d5b8b1461036057600080fd5b806396376040116100bd5780639637604014610306578063a217fddf1461030e578063ab62f3c71461031657600080fd5b806391d14854146102ac57806392b3dd6a146102f057600080fd5b80632f2ff15d1161013a5780633dd36646116101145780633dd366461461027e57806358aff2ef146102865780636e5b6b281461029957600080fd5b80632f2ff15d1461022f57806336568abe146102445780633aeae31d1461025757600080fd5b806301ffc9a71161016b57806301ffc9a7146101c05780630416c1a5146101e3578063248a9ca31461020c57600080fd5b8063018de5411461018757806301bfbc12146101ad575b600080fd5b61019a6101953660046114df565b610496565b6040519081526020015b60405180910390f35b61019a6101bb3660046114df565b6106f6565b6101d36101ce3660046114f8565b610884565b60405190151581526020016101a4565b6001546c0100000000000000000000000090046effffffffffffffffffffffffffffff1661019a565b61019a61021a3660046114df565b60009081526020819052604090206001015490565b61024261023d366004611541565b61091d565b005b610242610252366004611541565b610948565b61019a7fb6f6b279a7a4e2aa16012cbd36fcdc1fbdb91b92fd6dab57885c9de496473a8d81565b61019a6109a6565b61024261029436600461158a565b6109b6565b61019a6102a73660046114df565b610e47565b6101d36102ba366004611541565b60009182526020828152604080842073ffffffffffffffffffffffffffffffffffffffff93909316845291905290205460ff1690565b6001546bffffffffffffffffffffffff1661019a565b61019a610faa565b61019a600081565b61019a60025481565b6001547b01000000000000000000000000000000000000000000000000000000900464ffffffffff1661019a565b61024261035b3660046114df565b610fb5565b6001546bffffffffffffffffffffffff167ffffffffffffffffffffffffffffffffffffffffffcc4d1c3602f7fc318000000016301e133800261019a565b610433604080516060810182526000808252602082018190529181019190915250604080516060810182526001546bffffffffffffffffffffffff811682526c0100000000000000000000000081046effffffffffffffffffffffffffffff1660208301527b01000000000000000000000000000000000000000000000000000000900464ffffffffff169181019190915290565b6040805182516bffffffffffffffffffffffff1681526020808401516effffffffffffffffffffffffffffff16908201529181015164ffffffffff16908201526060016101a4565b610242610489366004611541565b611072565b61019a611097565b604080516060810182526001546bffffffffffffffffffffffff811682526c0100000000000000000000000081046effffffffffffffffffffffffffffff1660208301527b01000000000000000000000000000000000000000000000000000000900464ffffffffff1691810182905260009180840361052c5750602001516effffffffffffffffffffffffffffff1692915050565b8084101561059b576040517f08c379a000000000000000000000000000000000000000000000000000000000815260206004820152601f60248201527f4453524f7261636c65426173652f696e76616c69642d74696d657374616d700060448201526064015b60405180910390fd5b8151818503906bffffffffffffffffffffffff167ffffffffffffffffffffffffffffffffffffffffffcc4d1c3602f7fc318000000017fffffffffffffffffffffffffffffffffffffffffffffffffffffffffffffffff8201600080806002861161060757600061060c565b600286035b92506b033b2e3c9fd0803ce80000008580020491506b033b2e3c9fd0803ce800000085830204905060008261064186896115d1565b61064b91906115d1565b6002900490506000828561065f888b6115d1565b61066991906115d1565b61067391906115d1565b6006900490506b033b2e3c9fd0803ce800000081836106928b8b6115d1565b6106a8906b033b2e3c9fd0803ce80000006115e8565b6106b291906115e8565b6106bc91906115e8565b8b602001516effffffffffffffffffffffffffffff166106dc91906115d1565b6106e691906115fb565b9c9b505050505050505050505050565b604080516060810182526001546bffffffffffffffffffffffff811682526c0100000000000000000000000081046effffffffffffffffffffffffffffff1660208301527b01000000000000000000000000000000000000000000000000000000900464ffffffffff1691810182905260009180840361078c5750602001516effffffffffffffffffffffffffffff1692915050565b808410156107f6576040517f08c379a000000000000000000000000000000000000000000000000000000000815260206004820152601f60248201527f4453524f7261636c65426173652f696e76616c69642d74696d657374616d70006044820152606401610592565b81516020830151828603916bffffffffffffffffffffffff167ffffffffffffffffffffffffffffffffffffffffffcc4d1c3602f7fc31800000001906b033b2e3c9fd0803ce8000000906effffffffffffffffffffffffffffff168161085c85856115d1565b61086691906115e8565b61087091906115d1565b61087a91906115fb565b9695505050505050565b60007fffffffff0000000000000000000000000000000000000000000000000000000082167f7965db0b00000000000000000000000000000000000000000000000000000000148061091757507f01ffc9a7000000000000000000000000000000000000000000000000000000007fffffffff000000000000000000000000000000000000000000000000000000008316145b92915050565b600082815260208190526040902060010154610938816110a2565b61094283836110af565b50505050565b73ffffffffffffffffffffffffffffffffffffffff81163314610997576040517f6697b23200000000000000000000000000000000000000000000000000000000815260040160405180910390fd5b6109a182826111ab565b505050565b60006109b1426106f6565b905090565b7fb6f6b279a7a4e2aa16012cbd36fcdc1fbdb91b92fd6dab57885c9de496473a8d6109e0816110a2565b604080516060810182526001546bffffffffffffffffffffffff811682526c0100000000000000000000000081046effffffffffffffffffffffffffffff1660208301527b01000000000000000000000000000000000000000000000000000000900464ffffffffff1691810182905290600003610a6f576109a1610a6a3685900385018561168b565b611266565b806040015164ffffffffff16836040016020810190610a8e919061171e565b64ffffffffff161015610afd576040517f08c379a000000000000000000000000000000000000000000000000000000000815260206004820152601960248201527f445352417574684f7261636c652f696e76616c69642d72686f000000000000006044820152606401610592565b42610b0e606085016040860161171e565b64ffffffffff161115610b7d576040517f08c379a000000000000000000000000000000000000000000000000000000000815260206004820152601960248201527f445352417574684f7261636c652f696e76616c69642d72686f000000000000006044820152606401610592565b6002546b033b2e3c9fd0803ce8000000610b9a6020860186611739565b6bffffffffffffffffffffffff161015610c10576040517f08c379a000000000000000000000000000000000000000000000000000000000815260206004820152601960248201527f445352417574684f7261636c652f696e76616c69642d647372000000000000006044820152606401610592565b80610c1e6020860186611739565b6bffffffffffffffffffffffff161115610c94576040517f08c379a000000000000000000000000000000000000000000000000000000000815260206004820152601960248201527f445352417574684f7261636c652f696e76616c69642d647372000000000000006044820152606401610592565b81602001516effffffffffffffffffffffffffffff16846020016020810190610cbd9190611754565b6effffffffffffffffffffffffffffff161015610d36576040517f08c379a000000000000000000000000000000000000000000000000000000000815260206004820152601960248201527f445352417574684f7261636c652f696e76616c69642d636869000000000000006044820152606401610592565b60006b033b2e3c9fd0803ce800000083602001516effffffffffffffffffffffffffffff16610d8d848660400151896040016020810190610d77919061171e565b610d81919061176f565b64ffffffffff16611363565b610d9791906115d1565b610da191906115fb565b905080610db46040870160208801611754565b6effffffffffffffffffffffffffffff161115610e2d576040517f08c379a000000000000000000000000000000000000000000000000000000000815260206004820152601960248201527f445352417574684f7261636c652f696e76616c69642d636869000000000000006044820152606401610592565b610e3f610a6a3687900387018761168b565b5050505b5050565b604080516060810182526001546bffffffffffffffffffffffff811682526c0100000000000000000000000081046effffffffffffffffffffffffffffff1660208301527b01000000000000000000000000000000000000000000000000000000900464ffffffffff16918101829052600091808403610edd5750602001516effffffffffffffffffffffffffffff1692915050565b80841015610f47576040517f08c379a000000000000000000000000000000000000000000000000000000000815260206004820152601f60248201527f4453524f7261636c65426173652f696e76616c69642d74696d657374616d70006044820152606401610592565b600081850390506b033b2e3c9fd0803ce800000083602001516effffffffffffffffffffffffffffff16610f8d85600001516bffffffffffffffffffffffff1684611363565b610f9791906115d1565b610fa191906115fb565b95945050505050565b60006109b142610496565b6000610fc0816110a2565b6b033b2e3c9fd0803ce8000000821015611036576040517f08c379a000000000000000000000000000000000000000000000000000000000815260206004820152601d60248201527f445352417574684f7261636c652f696e76616c69642d6d61782d6473720000006044820152606401610592565b60028290556040518281527ff756eadc4b6b9531a0ec2131cd12edbe371b141ab6f78c183c66398f14f5e3f79060200160405180910390a15050565b60008281526020819052604090206001015461108d816110a2565b61094283836111ab565b60006109b142610e47565b6110ac8133611459565b50565b60008281526020818152604080832073ffffffffffffffffffffffffffffffffffffffff8516845290915281205460ff166111a35760008381526020818152604080832073ffffffffffffffffffffffffffffffffffffffff86168452909152902080547fffffffffffffffffffffffffffffffffffffffffffffffffffffffffffffff001660011790556111413390565b73ffffffffffffffffffffffffffffffffffffffff168273ffffffffffffffffffffffffffffffffffffffff16847f2f8788117e7eff1d82e926ec794901d17c78024a50270940304540a733656f0d60405160405180910390a4506001610917565b506000610917565b60008281526020818152604080832073ffffffffffffffffffffffffffffffffffffffff8516845290915281205460ff16156111a35760008381526020818152604080832073ffffffffffffffffffffffffffffffffffffffff8616808552925280832080547fffffffffffffffffffffffffffffffffffffffffffffffffffffffffffffff0016905551339286917ff6391f5c32d9c69d2a47ea670b442974b53935d1edc7fd64eb21e047a839171b9190a4506001610917565b80516001805460208085018051604080880180516bffffffffffffffffffffffff9098167fffffffffff00000000000000000000000000000000000000000000000000000090961686176c010000000000000000000000006effffffffffffffffffffffffffffff94851602177affffffffffffffffffffffffffffffffffffffffffffffffffffff167b0100000000000000000000000000000000000000000000000000000064ffffffffff998a1602179096558051948552915116918301919091529151909216908201527f90e88bcfdf9cf7d631c6b9801cc9f39ad830d176408f246b9db0dc2b3aaa832b9060600160405180910390a150565b60008280156114305760018316801561137e5784925061138e565b6b033b2e3c9fd0803ce800000092505b506002909204916b019d971e4fe8401e740000005b831561142a5784850285868204146113ba57600080fd5b818101818110156113ca57600080fd5b6b033b2e3c9fd0803ce80000009004955050600184161561141f5784830283868204141586151516156113fc57600080fd5b8181018181101561140c57600080fd5b6b033b2e3c9fd0803ce800000090049350505b6002840493506113a3565b50611452565b8280156114405760009250611450565b6b033b2e3c9fd0803ce800000092505b505b5092915050565b60008281526020818152604080832073ffffffffffffffffffffffffffffffffffffffff8516845290915290205460ff16610e43576040517fe2517d3f00000000000000000000000000000000000000000000000000000000815273ffffffffffffffffffffffffffffffffffffffff8216600482015260248101839052604401610592565b6000602082840312156114f157600080fd5b5035919050565b60006020828403121561150a57600080fd5b81357fffffffff000000000000000000000000000000000000000000000000000000008116811461153a57600080fd5b9392505050565b6000806040838503121561155457600080fd5b82359150602083013573ffffffffffffffffffffffffffffffffffffffff8116811461157f57600080fd5b809150509250929050565b60006060828403121561159c57600080fd5b50919050565b7f4e487b7100000000000000000000000000000000000000000000000000000000600052601160045260246000fd5b8082028115828204841417610917576109176115a2565b80820180821115610917576109176115a2565b600082611631577f4e487b7100000000000000000000000000000000000000000000000000000000600052601260045260246000fd5b500490565b80356bffffffffffffffffffffffff8116811461165257600080fd5b919050565b80356effffffffffffffffffffffffffffff8116811461165257600080fd5b803564ffffffffff8116811461165257600080fd5b60006060828403121561169d57600080fd5b6040516060810181811067ffffffffffffffff821117156116e7577f4e487b7100000000000000000000000000000000000000000000000000000000600052604160045260246000fd5b6040526116f383611636565b815261170160208401611657565b602082015261171260408401611676565b60408201529392505050565b60006020828403121561173057600080fd5b61153a82611676565b60006020828403121561174b57600080fd5b61153a82611636565b60006020828403121561176657600080fd5b61153a82611657565b64ffffffffff828116828216039080821115611452576114526115a256fea2646970667358221220d5f73d883678099897f895d54787b41dfb7b28fff7b78080ceae848853d7859b64736f6c63430008140033",
            "nonce": "0x101",
            "accessList": []
          },
          "additionalContracts": [],
          "isFixedGasLimit": false
        },
        {
          "hash": "0x061d8d6b6d23d3474db4814fd4672c9fe6471e910ec5501104cd3558676309ed",
          "transactionType": "CREATE",
          "contractName": "DSROracleReceiverGnosis",
          "contractAddress": "0x2634a7554343350f3fF974eB76bCc378C6e05e19",
          "function": null,
          "arguments": [
            "0x75Df5AF045d91108662D8080fD1FEFAd6aA0bb59",
            "1",
            "0x35956B98D441EDC00Cc04c776DBff6BA9884Cf27",
            "0xd711Ed1E89d582e1Cace7a05c280Ea022218Fe15"
          ],
          "transaction": {
            "type": "0x02",
            "from": "0xd1236a6a111879d9862f8374ba15344b6b233fbd",
            "gas": "0x82212",
            "value": "0x0",
            "data": "0x60e060405234801561001057600080fd5b5060405161072738038061072783398101604081905261002f9161007a565b6001600160a01b0393841660805260a092909252821660c052600080546001600160a01b031916919092161790556100cf565b6001600160a01b038116811461007757600080fd5b50565b6000806000806080858703121561009057600080fd5b845161009b81610062565b6020860151604087015191955093506100b381610062565b60608601519092506100c481610062565b939692955090935050565b60805160a05160c05161060861011f6000396000818160d7015261039e01526000818161011e01526102870152600081816071015281816101f9015281816102a8015261045e01526106086000f3fe608060405234801561001057600080fd5b50600436106100675760003560e01c80637a631bb1116100505780637a631bb1146100d25780637dc0d1d0146100f95780639a8a05921461011957600080fd5b806337408b391461006c57806358aff2ef146100bd575b600080fd5b6100937f000000000000000000000000000000000000000000000000000000000000000081565b60405173ffffffffffffffffffffffffffffffffffffffff90911681526020015b60405180910390f35b6100d06100cb3660046104f0565b61014e565b005b6100937f000000000000000000000000000000000000000000000000000000000000000081565b6000546100939073ffffffffffffffffffffffffffffffffffffffff1681565b6101407f000000000000000000000000000000000000000000000000000000000000000081565b6040519081526020016100b4565b6101566101e1565b6000546040517f58aff2ef00000000000000000000000000000000000000000000000000000000815273ffffffffffffffffffffffffffffffffffffffff909116906358aff2ef906101ac908490600401610508565b600060405180830381600087803b1580156101c657600080fd5b505af11580156101da573d6000803e3d6000fd5b5050505050565b3373ffffffffffffffffffffffffffffffffffffffff7f00000000000000000000000000000000000000000000000000000000000000001614610285576040517f08c379a000000000000000000000000000000000000000000000000000000000815260206004820152601760248201527f52656365697665722f696e76616c69642d73656e64657200000000000000000060448201526064015b60405180910390fd5b7f00000000000000000000000000000000000000000000000000000000000000007f000000000000000000000000000000000000000000000000000000000000000073ffffffffffffffffffffffffffffffffffffffff16639e307dff6040518163ffffffff1660e01b8152600401602060405180830381865afa158015610311573d6000803e3d6000fd5b505050506040513d601f19601f82011682018060405250810190610335919061057c565b1461039c576040517f08c379a000000000000000000000000000000000000000000000000000000000815260206004820152601860248201527f52656365697665722f696e76616c69642d636861696e49640000000000000000604482015260640161027c565b7f000000000000000000000000000000000000000000000000000000000000000073ffffffffffffffffffffffffffffffffffffffff166103db61045a565b73ffffffffffffffffffffffffffffffffffffffff1614610458576040517f08c379a000000000000000000000000000000000000000000000000000000000815260206004820152601c60248201527f52656365697665722f696e76616c69642d6c31417574686f7269747900000000604482015260640161027c565b565b60007f000000000000000000000000000000000000000000000000000000000000000073ffffffffffffffffffffffffffffffffffffffff1663d67bdd256040518163ffffffff1660e01b8152600401602060405180830381865afa1580156104c7573d6000803e3d6000fd5b505050506040513d601f19601f820116820180604052508101906104eb9190610595565b905090565b60006060828403121561050257600080fd5b50919050565b6060810182356bffffffffffffffffffffffff811680821461052957600080fd5b83525060208301356effffffffffffffffffffffffffffff811680821461054f57600080fd5b602084015250604083013564ffffffffff811680821461056e57600080fd5b806040850152505092915050565b60006020828403121561058e57600080fd5b5051919050565b6000602082840312156105a757600080fd5b815173ffffffffffffffffffffffffffffffffffffffff811681146105cb57600080fd5b939250505056fea26469706673582212208e8085b1226a580ef1353347eb47d948fe30676d50413450183049c0be1f11cf64736f6c6343000814003300000000000000000000000075df5af045d91108662d8080fd1fefad6aa0bb59000000000000000000000000000000000000000000000000000000000000000100000000000000000000000035956b98d441edc00cc04c776dbff6ba9884cf27000000000000000000000000d711ed1e89d582e1cace7a05c280ea022218fe15",
            "nonce": "0x102",
            "accessList": []
          },
          "additionalContracts": [],
          "isFixedGasLimit": false
        },
        {
          "hash": "0x3304394e08b8390f8a589bee2b781648e727e7bd5d511b2e6c75a96b7a8863e0",
          "transactionType": "CREATE",
          "contractName": "DSRBalancerRateProviderAdapter",
          "contractAddress": "0xF9733fcae7Ce0e5447bE317e212aA7612C1450eC",
          "function": null,
          "arguments": [
            "0xd711Ed1E89d582e1Cace7a05c280Ea022218Fe15"
          ],
          "transaction": {
            "type": "0x02",
            "from": "0xd1236a6a111879d9862f8374ba15344b6b233fbd",
            "gas": "0x312e0",
            "value": "0x0",
            "data": "0x60a060405234801561001057600080fd5b5060405161026138038061026183398101604081905261002f91610040565b6001600160a01b0316608052610070565b60006020828403121561005257600080fd5b81516001600160a01b038116811461006957600080fd5b9392505050565b6080516101d161009060003960008181605b015260ab01526101d16000f3fe608060405234801561001057600080fd5b50600436106100365760003560e01c8063679aefce1461003b578063a3c9faef14610056575b600080fd5b6100436100a2565b6040519081526020015b60405180910390f35b61007d7f000000000000000000000000000000000000000000000000000000000000000081565b60405173ffffffffffffffffffffffffffffffffffffffff909116815260200161004d565b6000633b9aca007f000000000000000000000000000000000000000000000000000000000000000073ffffffffffffffffffffffffffffffffffffffff1663963760406040518163ffffffff1660e01b8152600401602060405180830381865afa158015610114573d6000803e3d6000fd5b505050506040513d601f19601f820116820180604052508101906101389190610147565b6101429190610160565b905090565b60006020828403121561015957600080fd5b5051919050565b600082610196577f4e487b7100000000000000000000000000000000000000000000000000000000600052601260045260246000fd5b50049056fea2646970667358221220336e20fb9896806489760bd876c825cea65ca719a4b8b59870a690c3e9f885d364736f6c63430008140033000000000000000000000000d711ed1e89d582e1cace7a05c280ea022218fe15",
            "nonce": "0x103",
            "accessList": []
          },
          "additionalContracts": [],
          "isFixedGasLimit": false
        },
        {
          "hash": "0xb88e9218fe09b770907727a90e183f047521ade609362f22d587b00207347d1d",
          "transactionType": "CALL",
          "contractName": "DSRAuthOracle",
          "contractAddress": "0xd711Ed1E89d582e1Cace7a05c280Ea022218Fe15",
          "function": "grantRole(bytes32,address)",
          "arguments": [
            "0xb6f6b279a7a4e2aa16012cbd36fcdc1fbdb91b92fd6dab57885c9de496473a8d",
            "0x2634a7554343350f3fF974eB76bCc378C6e05e19"
          ],
          "transaction": {
            "type": "0x02",
            "from": "0xd1236a6a111879d9862f8374ba15344b6b233fbd",
            "to": "0xd711ed1e89d582e1cace7a05c280ea022218fe15",
            "gas": "0x1251c",
            "value": "0x0",
            "data": "0x2f2ff15db6f6b279a7a4e2aa16012cbd36fcdc1fbdb91b92fd6dab57885c9de496473a8d0000000000000000000000002634a7554343350f3ff974eb76bcc378c6e05e19",
            "nonce": "0x104",
            "accessList": []
          },
          "additionalContracts": [],
          "isFixedGasLimit": false
        },
        {
          "hash": "0x4cd94bab3027a67bae21f17b640239c6004f9e46be7c62d7911cdef1aaeefda2",
          "transactionType": "CALL",
          "contractName": "DSRAuthOracle",
          "contractAddress": "0xd711Ed1E89d582e1Cace7a05c280Ea022218Fe15",
          "function": "setMaxDSR(uint256)",
          "arguments": [
            "1000000076036763190083298291"
          ],
          "transaction": {
            "type": "0x02",
            "from": "0xd1236a6a111879d9862f8374ba15344b6b233fbd",
            "to": "0xd711ed1e89d582e1cace7a05c280ea022218fe15",
            "gas": "0xabaa",
            "value": "0x0",
            "data": "0xbe13c1e30000000000000000000000000000000000000000033b2e40bf09597fcf69a3f3",
            "nonce": "0x105",
            "accessList": []
          },
          "additionalContracts": [],
          "isFixedGasLimit": false
        },
        {
          "hash": "0xeffa98ff4cece92deecd7674b39d7a69805114b6712cbc891a741322b96cfc72",
          "transactionType": "CALL",
          "contractName": "DSRAuthOracle",
          "contractAddress": "0xd711Ed1E89d582e1Cace7a05c280Ea022218Fe15",
          "function": "grantRole(bytes32,address)",
          "arguments": [
            "0x0000000000000000000000000000000000000000000000000000000000000000",
            "0xc4218C1127cB24a0D6c1e7D25dc34e10f2625f5A"
          ],
          "transaction": {
            "type": "0x02",
            "from": "0xd1236a6a111879d9862f8374ba15344b6b233fbd",
            "to": "0xd711ed1e89d582e1cace7a05c280ea022218fe15",
            "gas": "0x122ea",
            "value": "0x0",
            "data": "0x2f2ff15d0000000000000000000000000000000000000000000000000000000000000000000000000000000000000000c4218c1127cb24a0d6c1e7d25dc34e10f2625f5a",
            "nonce": "0x106",
            "accessList": []
          },
          "additionalContracts": [],
          "isFixedGasLimit": false
        },
        {
          "hash": "0x9b1304e02d90c0cfa01a61f8472030988caa87fd59d5d303d75d447076ca9e60",
          "transactionType": "CALL",
          "contractName": "DSRAuthOracle",
          "contractAddress": "0xd711Ed1E89d582e1Cace7a05c280Ea022218Fe15",
          "function": "renounceRole(bytes32,address)",
          "arguments": [
            "0x0000000000000000000000000000000000000000000000000000000000000000",
            "0xd1236a6A111879d9862f8374BA15344b6B233Fbd"
          ],
          "transaction": {
            "type": "0x02",
            "from": "0xd1236a6a111879d9862f8374ba15344b6b233fbd",
            "to": "0xd711ed1e89d582e1cace7a05c280ea022218fe15",
            "gas": "0x8457",
            "value": "0x0",
            "data": "0x36568abe0000000000000000000000000000000000000000000000000000000000000000000000000000000000000000d1236a6a111879d9862f8374ba15344b6b233fbd",
            "nonce": "0x107",
            "accessList": []
          },
          "additionalContracts": [],
          "isFixedGasLimit": false
        }
      ],
      "receipts": [
        {
          "transactionHash": "0xcdc63b1d429a61381d9795bf885e20ca09a16767e71c83e77508c2b494f4f5a9",
          "transactionIndex": "0x6",
          "blockHash": "0xdc28a0c4b2a346a0bc8a0cd1368bec7c17ca59b9db990ca04856be5ec45c7233",
          "blockNumber": "0x1fd2c0d",
          "from": "0xd1236a6A111879d9862f8374BA15344b6B233Fbd",
          "to": null,
          "cumulativeGasUsed": "0x2dfbc7",
          "gasUsed": "0x158d90",
          "contractAddress": "0xd711Ed1E89d582e1Cace7a05c280Ea022218Fe15",
          "logs": [
            {
              "address": "0xd711Ed1E89d582e1Cace7a05c280Ea022218Fe15",
              "topics": [
                "0x2f8788117e7eff1d82e926ec794901d17c78024a50270940304540a733656f0d",
                "0x0000000000000000000000000000000000000000000000000000000000000000",
                "0x000000000000000000000000d1236a6a111879d9862f8374ba15344b6b233fbd",
                "0x000000000000000000000000d1236a6a111879d9862f8374ba15344b6b233fbd"
              ],
              "data": "0x",
              "blockHash": "0xdc28a0c4b2a346a0bc8a0cd1368bec7c17ca59b9db990ca04856be5ec45c7233",
              "blockNumber": "0x1fd2c0d",
              "transactionHash": "0xcdc63b1d429a61381d9795bf885e20ca09a16767e71c83e77508c2b494f4f5a9",
              "transactionIndex": "0x6",
              "logIndex": "0xcd",
              "removed": false
            },
            {
              "address": "0xd711Ed1E89d582e1Cace7a05c280Ea022218Fe15",
              "topics": [
                "0xbd79b86ffe0ab8e8776151514217cd7cacd52c909f66475c3af44e129f0b00ff",
                "0xb6f6b279a7a4e2aa16012cbd36fcdc1fbdb91b92fd6dab57885c9de496473a8d",
                "0x0000000000000000000000000000000000000000000000000000000000000000",
                "0x0000000000000000000000000000000000000000000000000000000000000000"
              ],
              "data": "0x",
              "blockHash": "0xdc28a0c4b2a346a0bc8a0cd1368bec7c17ca59b9db990ca04856be5ec45c7233",
              "blockNumber": "0x1fd2c0d",
              "transactionHash": "0xcdc63b1d429a61381d9795bf885e20ca09a16767e71c83e77508c2b494f4f5a9",
              "transactionIndex": "0x6",
              "logIndex": "0xce",
              "removed": false
            }
          ],
          "status": "0x1",
          "logsBloom": "0x00000004000004000800000000000000080000000000000000080000000000000000000000000000000000000000000000000000000000000000000000000000000000000000000000800000000000000000000000010200000000000000000000000000020000400000000000000800000000000000800000000000000000000000000000000000000000000000000000000000010000000000000000000000000000000000000000000000000000000000000000000000001000000000000000000000000040000000000000001000000000000000000100000000000020000000000000000000000000000000000000000000000000000000000000000000",
          "type": "0x2",
          "effectiveGasPrice": "0xb2d05e1a"
        },
        {
          "transactionHash": "0x061d8d6b6d23d3474db4814fd4672c9fe6471e910ec5501104cd3558676309ed",
          "transactionIndex": "0x7",
          "blockHash": "0x148b96178d56fcc8e776e2bb197533ba0113e5d30976010087cf31a824c20f3c",
          "blockNumber": "0x1fd2c0e",
          "from": "0xd1236a6A111879d9862f8374BA15344b6B233Fbd",
          "to": null,
          "cumulativeGasUsed": "0x1def3e",
          "gasUsed": "0x64214",
          "contractAddress": "0x2634a7554343350f3fF974eB76bCc378C6e05e19",
          "logs": [],
          "status": "0x1",
          "logsBloom": "0x00000000000000000000000000000000000000000000000000000000000000000000000000000000000000000000000000000000000000000000000000000000000000000000000000000000000000000000000000000000000000000000000000000000000000000000000000000000000000000000000000000000000000000000000000000000000000000000000000000000000000000000000000000000000000000000000000000000000000000000000000000000000000000000000000000000000000000000000000000000000000000000000000000000000000000000000000000000000000000000000000000000000000000000000000000000",
          "type": "0x2",
          "effectiveGasPrice": "0xb2d05e18"
        },
        {
          "transactionHash": "0x3304394e08b8390f8a589bee2b781648e727e7bd5d511b2e6c75a96b7a8863e0",
          "transactionIndex": "0x8",
          "blockHash": "0x148b96178d56fcc8e776e2bb197533ba0113e5d30976010087cf31a824c20f3c",
          "blockNumber": "0x1fd2c0e",
          "from": "0xd1236a6A111879d9862f8374BA15344b6B233Fbd",
          "to": null,
          "cumulativeGasUsed": "0x204cb2",
          "gasUsed": "0x25d74",
          "contractAddress": "0xF9733fcae7Ce0e5447bE317e212aA7612C1450eC",
          "logs": [],
          "status": "0x1",
          "logsBloom": "0x00000000000000000000000000000000000000000000000000000000000000000000000000000000000000000000000000000000000000000000000000000000000000000000000000000000000000000000000000000000000000000000000000000000000000000000000000000000000000000000000000000000000000000000000000000000000000000000000000000000000000000000000000000000000000000000000000000000000000000000000000000000000000000000000000000000000000000000000000000000000000000000000000000000000000000000000000000000000000000000000000000000000000000000000000000000",
          "type": "0x2",
          "effectiveGasPrice": "0xb2d05e18"
        },
        {
          "transactionHash": "0xb88e9218fe09b770907727a90e183f047521ade609362f22d587b00207347d1d",
          "transactionIndex": "0x9",
          "blockHash": "0x148b96178d56fcc8e776e2bb197533ba0113e5d30976010087cf31a824c20f3c",
          "blockNumber": "0x1fd2c0e",
          "from": "0xd1236a6A111879d9862f8374BA15344b6B233Fbd",
          "to": "0xd711Ed1E89d582e1Cace7a05c280Ea022218Fe15",
          "cumulativeGasUsed": "0x21151d",
          "gasUsed": "0xc86b",
          "contractAddress": null,
          "logs": [
            {
              "address": "0xd711Ed1E89d582e1Cace7a05c280Ea022218Fe15",
              "topics": [
                "0x2f8788117e7eff1d82e926ec794901d17c78024a50270940304540a733656f0d",
                "0xb6f6b279a7a4e2aa16012cbd36fcdc1fbdb91b92fd6dab57885c9de496473a8d",
                "0x0000000000000000000000002634a7554343350f3ff974eb76bcc378c6e05e19",
                "0x000000000000000000000000d1236a6a111879d9862f8374ba15344b6b233fbd"
              ],
              "data": "0x",
              "blockHash": "0x148b96178d56fcc8e776e2bb197533ba0113e5d30976010087cf31a824c20f3c",
              "blockNumber": "0x1fd2c0e",
              "transactionHash": "0xb88e9218fe09b770907727a90e183f047521ade609362f22d587b00207347d1d",
              "transactionIndex": "0x9",
              "logIndex": "0x23",
              "removed": false
            }
          ],
          "status": "0x1",
          "logsBloom": "0x00000004000004000000000000000000000000000000000000080000000000000000000000000000000000000020000000000000000000000000000000000100000000000000000000800000000000000000000000010200000000000000000000000000000000000000000000000000000000000000800000000000000000000000000000000000000000000000000000000000010000000000000000000000000000000000000000000000000000000000000000000000001000200000000000000000000040000000000000001000000000000000000100000000000000000000000000000000000000000000000000000000000000000000000000000000",
          "type": "0x2",
          "effectiveGasPrice": "0xb2d05e18"
        },
        {
          "transactionHash": "0x4cd94bab3027a67bae21f17b640239c6004f9e46be7c62d7911cdef1aaeefda2",
          "transactionIndex": "0xa",
          "blockHash": "0x148b96178d56fcc8e776e2bb197533ba0113e5d30976010087cf31a824c20f3c",
          "blockNumber": "0x1fd2c0e",
          "from": "0xd1236a6A111879d9862f8374BA15344b6B233Fbd",
          "to": "0xd711Ed1E89d582e1Cace7a05c280Ea022218Fe15",
          "cumulativeGasUsed": "0x218a7e",
          "gasUsed": "0x7561",
          "contractAddress": null,
          "logs": [
            {
              "address": "0xd711Ed1E89d582e1Cace7a05c280Ea022218Fe15",
              "topics": [
                "0xf756eadc4b6b9531a0ec2131cd12edbe371b141ab6f78c183c66398f14f5e3f7"
              ],
              "data": "0x0000000000000000000000000000000000000000033b2e40bf09597fcf69a3f3",
              "blockHash": "0x148b96178d56fcc8e776e2bb197533ba0113e5d30976010087cf31a824c20f3c",
              "blockNumber": "0x1fd2c0e",
              "transactionHash": "0x4cd94bab3027a67bae21f17b640239c6004f9e46be7c62d7911cdef1aaeefda2",
              "transactionIndex": "0xa",
              "logIndex": "0x24",
              "removed": false
            }
          ],
          "status": "0x1",
          "logsBloom": "0x00000000000000000000000000000000000000000000800000000000000000000000000000000000000000000000000000000000000000000000000000000000000000000000000000000000000000000000000000010000000000000000000000000100000000000000000000000000000000000000000000000000000000000000000000000000000000000000000000000000010000000000000000000000000000000000000000000000000000000000000000000000000000000000000000000000000000000040000000001000000000000000000000000000000000000000000000000000000000000000000000000000000000000000000000000000",
          "type": "0x2",
          "effectiveGasPrice": "0xb2d05e18"
        },
        {
          "transactionHash": "0xeffa98ff4cece92deecd7674b39d7a69805114b6712cbc891a741322b96cfc72",
          "transactionIndex": "0xb",
          "blockHash": "0x148b96178d56fcc8e776e2bb197533ba0113e5d30976010087cf31a824c20f3c",
          "blockNumber": "0x1fd2c0e",
          "from": "0xd1236a6A111879d9862f8374BA15344b6B233Fbd",
          "to": "0xd711Ed1E89d582e1Cace7a05c280Ea022218Fe15",
          "cumulativeGasUsed": "0x225169",
          "gasUsed": "0xc6eb",
          "contractAddress": null,
          "logs": [
            {
              "address": "0xd711Ed1E89d582e1Cace7a05c280Ea022218Fe15",
              "topics": [
                "0x2f8788117e7eff1d82e926ec794901d17c78024a50270940304540a733656f0d",
                "0x0000000000000000000000000000000000000000000000000000000000000000",
                "0x000000000000000000000000c4218c1127cb24a0d6c1e7d25dc34e10f2625f5a",
                "0x000000000000000000000000d1236a6a111879d9862f8374ba15344b6b233fbd"
              ],
              "data": "0x",
              "blockHash": "0x148b96178d56fcc8e776e2bb197533ba0113e5d30976010087cf31a824c20f3c",
              "blockNumber": "0x1fd2c0e",
              "transactionHash": "0xeffa98ff4cece92deecd7674b39d7a69805114b6712cbc891a741322b96cfc72",
              "transactionIndex": "0xb",
              "logIndex": "0x25",
              "removed": false
            }
          ],
          "status": "0x1",
          "logsBloom": "0x00000004000004000000000000000000000000000000000000080000000000000000000000000000000000000000000000000000000000000000000000000000000000000000000000000000000000000000000000010200000000000000000000000000020000000000000000000800000000000000000000000000000000000000000000000000000000000000000000000000010000000000000000000000000020000000000000000400000000000000000000000000001000000000000100000000000000000000000000001000000000000000000100000000000020000000000000000000000000000000000000000000000000000000000000000000",
          "type": "0x2",
          "effectiveGasPrice": "0xb2d05e18"
        },
        {
          "transactionHash": "0x9b1304e02d90c0cfa01a61f8472030988caa87fd59d5d303d75d447076ca9e60",
          "transactionIndex": "0xc",
          "blockHash": "0x148b96178d56fcc8e776e2bb197533ba0113e5d30976010087cf31a824c20f3c",
          "blockNumber": "0x1fd2c0e",
          "from": "0xd1236a6A111879d9862f8374BA15344b6B233Fbd",
          "to": "0xd711Ed1E89d582e1Cace7a05c280Ea022218Fe15",
          "cumulativeGasUsed": "0x22b139",
          "gasUsed": "0x5fd0",
          "contractAddress": null,
          "logs": [
            {
              "address": "0xd711Ed1E89d582e1Cace7a05c280Ea022218Fe15",
              "topics": [
                "0xf6391f5c32d9c69d2a47ea670b442974b53935d1edc7fd64eb21e047a839171b",
                "0x0000000000000000000000000000000000000000000000000000000000000000",
                "0x000000000000000000000000d1236a6a111879d9862f8374ba15344b6b233fbd",
                "0x000000000000000000000000d1236a6a111879d9862f8374ba15344b6b233fbd"
              ],
              "data": "0x",
              "blockHash": "0x148b96178d56fcc8e776e2bb197533ba0113e5d30976010087cf31a824c20f3c",
              "blockNumber": "0x1fd2c0e",
              "transactionHash": "0x9b1304e02d90c0cfa01a61f8472030988caa87fd59d5d303d75d447076ca9e60",
              "transactionIndex": "0xc",
              "logIndex": "0x26",
              "removed": false
            }
          ],
          "status": "0x1",
          "logsBloom": "0x00000000000004000000000000000000000000000000000000080000000000000000000000000000000000000000000000200000000000000000000000000000000000000000000000000000000000000000000000010200000000000000000040000000020000000000000000000800000000000000000000000000000000000000000040000000000000000000000000000000010000000000000000000000000000000000000000000000000000000000000000000000000000000000000000000000000000000000000000001000000000000000000000000000000020000000000000000000000000000000000000000000000000000000000000000000",
          "type": "0x2",
          "effectiveGasPrice": "0xb2d05e18"
        }
      ],
      "libraries": [],
      "pending": [],
      "returns": {},
      "timestamp": 1712736814,
      "chain": 100,
      "commit": "353515e"
    }
  ],
  "timestamp": 1712736847
}